:020000040800F2
:1000000000040020C101000831E3000831E30008CA
:100010008169000831E3000831E3000831E300089A
:1000200031E3000831E3000831E3000881070108EB
:1000300031E3000831E3000831E30008718E010864
:1000400031E30008214E0108B14F010801500108B9
:1000500031E3000831E30008614B0108B14B0108AE
:10006000014C0108514C0108A14C0108B13D0108A7
:10007000013E0108513E0108A13E0108F13E010880
:10008000413F0108913F0108A14801083152010890
:10009000A15201085153010801540108F14C010813
:1000A00031E3000831E300084187010831E300082B
:1000B000318A0108718A0108B18A0108B169010811
:1000C000F16A010831E3000831E3000831E3000878
:1000D00031E3000831E3000831E30008318F010803
:1000E000814D0108714E0108C14E010831E300083D
:1000F00031E300088187010831E30008E13F01088E
:1001000031E3000881590108F18A010831E3000850
:1001100031E3000831E300080187010831E30008FA
:100120003140010881400108D14001082141010806
:100130007141010831E30008114F010831E3000863
:1001400031E3000831E3000831E30008F17E0108E3
:10015000C1410108114201086142010831E3000870
:1001600031E3000831E3000831E3000831E300081F
:10017000614F010831E30008F12D000831E3000868
:1001800031E3000831E3000831E3000831E30008FF
:1001900031E3000831E3000831E3000831E30008EF
:1001A00031E3000831E3000831E3000831E30008DF
:1001B00031E3000831E3000831E3000831E30008CF
:1001C00072B62E4880F3098840F20000CCF200009D
:1001D0004EF63471CEF20001086040F20000C0F229
:1001E000F0004EF68851CEF2000108604FF000009A
:1001F000E1EE100A4EF63C71CEF2000108600620D6
:1002000080F31488BFF36F8F18F0DAFF4FF055308A
:100210001B491C4A91423CBF41F8040BFAE71A49BA
:10022000164A91423CBF41F8040BFAE71749184AB5
:10023000184B9A423EBF51F8040B42F8040BF8E702
:1002400000201549154A91423CBF41F8040BFAE7DA
:100250000EF056F8124C134DAC4203DA54F8041B5E
:100260008847F9E702F054FB0F4C104DAC4203DA1B
:1002700054F8041B8847F9E70EF052B80008002034
:10028000000000200004002000040020E8180208FC
:1002900000080020FC18002000190020D87D012053
:1002A000C0010008C0010008C0010008C00100082A
:1002B0002DE9F04F2DED108AC1F80CD0D0F80CD0FC
:1002C000BDEC108ABDE8F08F0EF072F90FF0D8F98E
:1002D000002383F311882846A04700200EF040FF3A
:1002E0000FF0B6F90EF044F90EF062FD0EF060F971
:1002F0000FF0C6F900DFFEE700000000000000007C
:100300002DE9F843544B80461A68544882422DED3B
:10031000028B1BD052490B68DA0405D40A6842F4F8
:1003200080530B60012000E000204E4A4E491160CE
:1003300013684A4A934208D147490B6030B1484894
:10034000036823F48052026000E0FEE798ED018A22
:10035000B5EE408A0021F1EE10FAC8F81C10C8F87A
:100360001810C8F81410C8F81010C8F82810C8F8E9
:100370002410C8F8201029D0DFED3C7A28EE270A97
:1003800010EE100A00F0D8FF044618EE100A0D46D1
:1003900000F0D2FF0646B8F800000F4600F0BAFFA2
:1003A0002BA3D3E9002301F04DF902460B4630465A
:1003B000394600F063FE02460B462046294601F00E
:1003C00041F901F0F5FAA8F82C0001E0A8F82C108A
:1003D00098ED028AB5EE408AF1EE10FA26D0B8F810
:1003E00000904FEA092000F095FF044618EE100A2D
:1003F0000D4600F0A1FF16A3D3E9002300F0F8FF9B
:10040000064648460F4600F085FF02460B4630463A
:10041000394600F033FE02460B462046294601F0DD
:1004200011F901F0C5FAA8F82E0002E00020A8F8A2
:100430002E00B8F800204FF47A73B2FBF3F1A8F85D
:100440003010BDEC028BBDE8F88300BFAFF3008035
:100450001F85EB51B81E194000190020CDB5E8B535
:100460003038024000300240C2A507F4000080434B
:100470002DE9F04F9BB083461992A94A1891A948DB
:100480001168814200D0FEE79E6AB3F80CC09F69F4
:100490009A8DD98D039603261C6A5D6A059706928C
:1004A00006FB0CF74FEA8C0206264FEA4C000B9134
:1004B0000E97052106FB0CF70F9207220294049574
:1004C0000D90119701FB0CF04FEACC0602FB0CF1EA
:1004D00000271D695C69D3F81CA010901291179633
:1004E0000197188EDDF80490814580F20A818E48CC
:1004F0009BF800601BF80C7010F80690C25DA144D8
:100500008419511994F8008194F8002201EB4808ED
:10051000CDF81C80DDF834801BF80860855DC719B4
:10052000A9180E9A97F800411BF8022097F800725C
:1005300001EB4405815C0895CC1981190F9E91F857
:10054000008191F8007204EB48081BF80640CDF8D2
:1005500024808218055D92F8006192F80022E91962
:1005600001EB460505EB0807DDF8408015971BF801
:1005700008700A950419C15D94F8005194F800427E
:10058000DDF81C808E1806EB4501119D089A1BF8BA
:1005900005508E18C719425D1696161997F8002156
:1005A00006EB42029044CDF85080129C97F80072FE
:1005B0001BF804604519845DE41995F8007195F8FD
:1005C0000052801904EB47044FF01C0804EB0907A4
:1005D00090F80061139708FB09AADDF81C800C94C1
:1005E0000AEB0209152705EB460490F8005207FBB9
:1005F0000890099FDDF820900A2606FB070A0F27BE
:1006000007FB09A04FF00308DDF8289008FB010064
:100610004FF0060A0AFB0900009015984FF03009C8
:1006200009FB00FADDF858902E2000FB09A0824655
:100630000598824413984FF0240909FB00AA1498E6
:100640004FF02A0909FB00AA0898DDF8249008FB5E
:1006500000F8062000FB0988DDF81C9008EB090073
:1006600007FB01010A9F0C98DDF8009006FB0718B4
:100670001C2606FB008115270B9807FB021205922A
:10068000A9F5003868B1029E049FCDF8108006EBF2
:100690000801CE1B46434FF4807296FBF2F00290A5
:1006A0008046069961B1039E08FB01F8C1F5807789
:1006B00006FB07894FF4807299FBF2F003908046A5
:1006C000199901FB08F7002F02DD0837381103E004
:1006D000083F102697FBF6F047F6BC72019E1349BF
:1006E000189FDDF85C809042A8BF1046DA897243FB
:1006F0008842A8BF0146013627F81210C34401966C
:10070000EFE61D615C61029D059C1D629C61039D7D
:10071000049CC3F81CA05C629D621BB0BDE8F08F16
:1007200000190020CDB5E8B5000800204480FFFF87
:100730002DE9F04FA1B0C74C1F92C74A1E91116816
:10074000A14200D0FEE79F6A9A69998DDC8D0497DB
:100750009F89069207910F940322052106241D6AA2
:100760005E6A03957A4379437C43129214911594FF
:10077000072209210A24794305964FEA47084FEAE0
:1007800087097A434FEAC70A7C431E695D69D3F83B
:100790001CB01891CDF84480CDF84C901692CDF84D
:1007A0005CA01D94002102911A8E0299914280F260
:1007B0005981AA4A047812F80490A944C55D111918
:1007C00012F8058091F8004191F800A2464406EB2A
:1007D0004406119C0896045D5519165D95F800C1F4
:1007E00095F8005206EB0A0808EB4C0ADDF8488041
:1007F000CDF824A010F80810DDF84C80565C1419D0
:1008000006EB050A10F8085094F800C1565D94F8FC
:10081000004251180AEB4C0C361991F800A1149CB7
:1008200091F80012CDF828C006EB4A08065DCDF815
:100830002C80945DDDF85480551904EB010A95F87D
:10084000004195F800520AEB44010C9110F8081091
:100850009619545C641996F8005104EB45040D9404
:10086000169D96F80062DDF824A0DDF85C80A444B3
:10087000445DCDF86CC0155D5118AD1991F800615B
:1008800091F8001205EB460505EB0A060E9510F8E7
:1008900008501C961419565DDDF860A0711894F884
:1008A000006194F8004201EB460C08990CEB01063C
:1008B0001A9610F80A605519915D9219091995F860
:1008C000004192F8006195F8005201EB44012D249B
:1008D00001EB090804FB09BB10910899CDF864806D
:1008E0000BEB0C09DDF8288005EB460592F8006259
:1008F000242202FB019A152404FB08A9DDF824A098
:100900000C994FF01C0B0BFB0A994FF00A08DDF80D
:100910002CA008FB01994FF00F0B0E990BFB0A99C5
:100920004FF00308DDF834A008FB01994FF0060BE7
:100930000BFB0A99CDF80490DDF82CA00C994FF030
:100940004B0B51440BFB01F91B994FF0490A0AFB71
:10095000019B0699DDF868900BEB010A4FF03F0B05
:100960001C990BFB09AA4FF0450BDDF864900BFBBB
:1009700001AA4FF0370B0BFB09ABDDF824A00A9955
:1009800008FB0AF84FF00609DDF820A009FB0188F2
:100990000C99D0444FF00F09DDF82CA009FB018819
:1009A0000A21DDF8389001FB0A884FF01C0A0D99E6
:1009B0000AFB098804FB018A109C0F994FF02D094E
:1009C00009FB04A8DDF804A002FB0C820692AAF53C
:1009D0007A3971B1039C0599CDF8149004EB0902A2
:1009E000541A0F9A4FF48071544394FBF1F403941A
:1009F000A146079961B1049CC1F5807209FB01FC15
:100A000004FB02C94FF4807199FBF1F20492914604
:100A10001F9C04FB09F1002902DD10314C1103E099
:100A20001039202291FBF2F447F6BC718C42A8BF2A
:100A30000C46DA890299DDF874804A4308498C42F1
:100A4000A8BF21461E9C24F81210029A4044511C53
:100A5000A9E600BFCDB5E8B50019002000080020C8
:100A60004480FFFF05981E615D61039E069D049C06
:100A700058629D61C3F81CB01E629C62104621B092
:100A8000BDE8F08F2DE9F04F95B0994C1392994A3B
:100A900012911168A14200D0FEE75E6A1D6A9F6A4A
:100AA0009A69998DB3F82E800C964FF00009D3F80F
:100AB00010C05E69D3F81CB00195029709920A91A3
:100AC000CDF83480CDF80C908B4904780D190C5D6D
:100AD00095F8007295F8008106EB070A067ACDF8C2
:100AE0002CA08F198E5D97F8002202EB4805AC44CC
:100AF000057C97F80081CDF810C04A194D5D92F839
:100B0000009292F8002109EB040A0AEB480C90F8D5
:100B100018A090F82090CDF814C001EB0A0494F8C6
:100B2000007294F80041BF1907EB420801EB09027B
:100B3000CDF8188092F8006292F80021771907EB3F
:100B4000440606EB080C90F8288011F80A70079606
:100B500001EB0805CDF840C095F8004295F800512A
:100B6000E619059F06EB4204E619119690F83060ED
:100B700008948C1911F8097094F80022D219049F76
:100B800002EB4502BD180F9590F8385011F8089007
:100B900094F80041DDF82C808E5D4F1997F800A283
:100BA00097F800710AEB090C0CEB4404DDF818A06F
:100BB00011F805C000941C2505FB082944440A21AE
:100BC000DDF8148001FB0A9906EB4706DDF820A04A
:100BD0000F2707FB0899032101FB0A99DDF81CA0E8
:100BE0004FF0060808FB0A99DDF810A0152101FB5B
:100BF0000A99CB44DDF84490CDF82CB04FF02E0A82
:100C00000AFB09FADDF840904FF0300B0BFB09AA04
:100C10004FF0240B0BFB04A90F9C4FF02A0A0AFB90
:100C2000049B099CDDF81890DDF810A0A344059CF6
:100C300008FB09A8DDF820A04FF0030909FB048890
:100C4000079C07FB0A890A2707FB0498DDF8009038
:100C5000DDF82CA00C9F05FB098501FB02520199D0
:100C60000992AAF500328C180D99DDF82880E51B51
:100C70004D434FF4807195FBF1F40194019F44467C
:100C80007C43029FC8EB010507FB054595FBF1F18D
:100C90000291139C6143002902DD0831091103E030
:100CA0000839102791FBF7F147F6BC75134C129FDA
:100CB0000C92A942A8BF2946039DA142B8BF214674
:100CC00079530C354030C02D03957FF4FDAE099863
:100CD000019C029D9861C3F810C05E61C3F81CB00E
:100CE0001C625A629D62102015B0BDE8F08F00BFF3
:100CF000CDB5E8B500190020000800204480FFFFB2
:100D00002DE9F04FA1B084461F92BE4A1E91BE4805
:100D10001168814200D0FEE79E6A9F6905969E8910
:100D2000D98D01967000079703277E431190019893
:100D30009A8D0F9112960521019E08924843B200A8
:100D40001490019E01980199139206277E43072271
:100D5000C700514315961797019E019F1C6A5D6A53
:100D6000169109220A2156434F434FF0000804947C
:100D700006955C691D69D3F81CB018961D97CDF8CF
:100D80000C80188EDDF80C90814580F25A819F49C5
:100D90009CF80000DDF804900F181CF8096097F823
:100DA00000A297F80021085CA2448C198E5D94F88B
:100DB000008294F80041454405EB4207119D0997D4
:100DC0001CF805504A194D5D92F8007292F80081A6
:100DD0003F18129807EB44091CF80040CDF8289002
:100DE00008190C5D90F8007290F80001BF1907EB2C
:100DF0004809DDF84C80CDF82C901CF8089001EBE8
:100E00000902CDF8089092F8006292F80021771953
:100E1000149E1CF80690159E07EB400801EB090094
:100E2000CDF8308090F8005290F800012F1907EBB0
:100E300042081CF80670029DCDF83480CA194E5D38
:100E400092F80042A41904EB40050295DDF82C80CD
:100E5000169E92F80021CF5DA844CDF86C801CF856
:100E6000068011F80950DDF8609001EB080011F8D8
:100E7000088090F8004290F8000166190A9D06EB80
:100E80004204179A0E9466191C961CF802608C197D
:100E90008E5D94F8002294F80041D519099F05EB66
:100EA0004002D5191A951CF809504F194D5D97F855
:100EB000000297F80071404400EB44002D2100EB44
:100EC0000A0401FB0ABB1090099819940BEB020A63
:100ED00006EB470424210B9F01FB00A94FF01508E6
:100EE000DDF828A00D9808FB07964FF01C0B0BFBB4
:100EF0000A69DDF830800A2606FB009A0F27DDF824
:100F0000389007FB08AB4FF0030808FB09BADDF87F
:100F100008B0062000FB0BA9CDF80090DDF834A046
:100F2000DDF830B04FF04B090AEB0B0009FB00FA7B
:100F30001B984FF0490B0BFB00A9079809EB000A1F
:100F4000DDF868901C984FF03F0B0BFB09AA4FF09F
:100F5000450BDDF864900BFB00AA4FF0370B0BFB41
:100F600009ABDDF828A00B9808FB0AF84FF006093A
:100F7000DDF824A009FB00880D9808EB0A0907FB9F
:100F800000980C9FDDF83890029806FB07864FF01A
:100F90001C0A0AFB0968152707FB008610980F9F9B
:100FA0004FF02D0909FB006A01FB02A2DDF800A049
:100FB0000792AAF57A386FB10499069ECDF8188089
:100FC00001EB0800811B79434FF4807291FBF2F72B
:100FD0000497B846089860B1059908FB00F8C0F579
:100FE000807601FB06894FF4807299FBF2F7059732
:100FF000B8461F9800FB08F6002E09DD1036771161
:101000000AE000BF00190020CDB5E8B500080020B7
:10101000103E202196FBF1F7039ED8891049DDF898
:10102000748047F6BC729742A8BF17468F42A8BF8C
:10103000394670431E9F721C27F81010C444039257
:101040009FE65C61079C049A9C61059E069C1D615D
:10105000C3F81CB01A625C629E6221B0BDE8F08FDA
:101060004480FFFFAFF3008000000000000000009C
:1010700081F0004102E000BF83F0004330B54FEA49
:1010800041044FEA430594EA050F08BF90EA020FB6
:101090001FBF54EA000C55EA020C7FEA645C7FEA49
:1010A000655C00F0E2804FEA5454D4EB5555B8BF6C
:1010B0006D420CDD2C4480EA020281EA030382EADD
:1010C000000083EA010180EA020281EA0303362D6F
:1010D00088BF30BD11F0004F4FEA01314FF4801C42
:1010E0004CEA113102D0404261EB410113F0004F54
:1010F0004FEA03334CEA133302D0524263EB43030B
:1011000094EA050F00F0A780A4F10104D5F1200EA8
:101110000DDB02FA0EFC22FA05F2801841F1000103
:1011200003FA0EF2801843FA05F359410EE0A5F1D7
:1011300020050EF1200E012A03FA0EFC28BF4CF008
:10114000020C43FA05F3C01851EBE37101F00045BE
:1011500007D54FF0000EDCF1000C7EEB00006EEBCB
:101160000101B1F5801F1BD3B1F5001F0CD3490855
:101170005FEA30004FEA3C0C04F101044FEA4452AC
:1011800012F5800F80F09A80BCF1004F08BF5FEA33
:10119000500C50F1000041EB045141EA050130BD13
:1011A0005FEA4C0C404141EB010111F4801FA4F1B6
:1011B0000104E9D191F0000F04BF01460020B1FA0B
:1011C00081F308BF2033A3F10B03B3F120020CDA43
:1011D0000C3208DD02F1140CC2F10C0201FA0CF021
:1011E00021FA02F10CE002F11402D8BFC2F1200C86
:1011F00001FA02F120FA0CFCDCBF41EA0C0190403C
:10120000E41AA2BF01EB0451294330BD6FEA040484
:101210001F3C1CDA0C340EDC04F11404C4F120026F
:1012200020FA04F001FA02F340EA030021FA04F381
:1012300045EA030130BDC4F10C04C4F1200220FAD8
:1012400002F001FA04F340EA0300294630BD21FA16
:1012500004F0294630BD94F0000F83F4801306BFDC
:1012600081F480110134013D4EE77FEA645C18BFD0
:101270007FEA655C29D094EA050F08BF90EA020F67
:1012800005D054EA000C04BF1946104630BD91EA5F
:10129000030F1EBF0021002030BD5FEA545C05D162
:1012A0004000494128BF41F0004130BD14F58004A1
:1012B0003CBF01F5801130BD01F0004545F0FE4115
:1012C00041F470014FF0000030BD7FEA645C1ABF4A
:1012D000194610467FEA655C1CBF0B46024650EA81
:1012E000013406BF52EA033591EA030F41F40021AD
:1012F00030BD00BF90F0000F04BF0021704730B533
:101300004FF4806404F132044FF000054FF0000107
:1013100050E700BF90F0000F04BF0021704730B5C8
:101320004FF4806404F1320410F0004548BF40429D
:101330004FF000013EE700BF42004FEAE2014FEAF2
:1013400031014FEA02701FBF12F07F4393F07F4FCD
:1013500081F06051704732F07F4208BF704793F0D0
:101360007F4F04BF41F40021704730B54FF46074E3
:1013700001F0004521F000411CE700BF50EA0102E6
:1013800008BF704730B54FF000050AE050EA01028F
:1013900008BF704730B511F0004502D5404261EBFF
:1013A00041014FF4806404F132045FEA915C3FF440
:1013B000D8AE4FF003025FEADC0C18BF03325FEADD
:1013C000DC0C18BF033202EBDC02C2F1200300FA8E
:1013D00003FC20FA02F001FA03FE40EA0E0021FAB3
:1013E00002F11444BDE600BF000000000000000050
:1013F00070B54FF0FF0C4CF4E06C1CEA11541DBFAB
:101400001CEA135594EA0C0F95EA0C0F00F0DEF875
:101410002C4481EA030621EA4C5123EA4C5350EA5A
:10142000013518BF52EA033541F4801143F48013AB
:1014300038D0A0FB02CE4FF00005E1FB02E506F03C
:101440000042E0FB03E54FF00006E1FB03569CF091
:10145000000F18BF4EF0010EA4F1FF04B6F5007F97
:1014600064F5407404D25FEA4E0E6D4146EB060609
:1014700042EAC62141EA55514FEAC52040EA5E5092
:101480004FEACE2EB4F1FD0C88BFBCF5E06F1ED83C
:10149000BEF1004F08BF5FEA500E50F1000041EB73
:1014A000045170BD06F0004646EA010140EA020020
:1014B00081EA0301B4EB5C04C2BFD4EB0C0541EA42
:1014C000045170BD41F480114FF0000E013C00F357
:1014D000AB8014F1360FDEBF002001F0004170BD7B
:1014E000C4F10004203C35DA0C341BDC04F1140494
:1014F000C4F1200500FA05F320FA04F001FA05F220
:1015000040EA020001F0004221F0004110EBD370EC
:1015100021FA04F642EB06015EEA430E08BF20EA18
:10152000D37070BDC4F10C04C4F1200500FA04F3BB
:1015300020FA05F001FA04F240EA020001F000414D
:1015400010EBD37041F100015EEA430E08BF20EAC0
:10155000D37070BDC4F1200500FA05F24EEA020E08
:1015600020FA04F301FA05F243EA020321FA04F037
:1015700001F0004121FA04F220EA020000EBD370EE
:101580005EEA430E08BF20EAD37070BD94F0000FEE
:101590000FD101F00046400041EB010111F4801F22
:1015A00008BF013CF7D041EA060195F0000F18BFD3
:1015B000704703F00046520043EB030313F4801F0F
:1015C00008BF013DF7D043EA0603704794EA0C0FC9
:1015D0000CEA135518BF95EA0C0F0CD050EA4106DF
:1015E00018BF52EA4306D1D181EA030101F000415C
:1015F0004FF0000070BD50EA410606BF1046194684
:1016000052EA430619D094EA0C0F02D150EA01368F
:1016100013D195EA0C0F05D152EA03361CBF1046D0
:1016200019460AD181EA030101F0004141F0FE416F
:1016300041F470014FF0000070BD41F0FE4141F4F3
:10164000780170BD70B54FF0FF0C4CF4E06C1CEAF3
:1016500011541DBF1CEA135594EA0C0F95EA0C0FA8
:1016600000F0A7F8A4EB050481EA030E52EA033563
:101670004FEA013100F088804FEA03334FF0805584
:1016800045EA131343EA12634FEA022245EA1115B1
:1016900045EA10654FEA00260EF000419D4208BF62
:1016A000964244F1FD0404F5407402D25B084FEA0F
:1016B0003202B61A65EB03055B084FEA32024FF4BB
:1016C00080104FF4002CB6EB020E75EB030E22BF18
:1016D000B61A754640EA0C005B084FEA3202B6EBD8
:1016E000020E75EB030E22BFB61A754640EA5C0087
:1016F0005B084FEA3202B6EB020E75EB030E22BF17
:10170000B61A754640EA9C005B084FEA3202B6EB17
:10171000020E75EB030E22BFB61A754640EADC00D6
:1017200055EA060E18D04FEA051545EA16754FEA38
:1017300006164FEAC30343EA52734FEAC2025FEA56
:101740001C1CC0D111F4801F0BD141EA00014FF0E5
:1017500000004FF0004CB6E711F4801F04BF0143B6
:101760000020B4F1FD0C88BFBCF5E06F3FF6AFAED2
:10177000B5EB030C04BFB6EB020C5FEA500C50F162
:10178000000041EB045170BD0EF0004E4EEA1131E5
:1017900014EB5C04C2BFD4EB0C0541EA045170BDEC
:1017A00041F480114FF0000E013C90E645EA060E30
:1017B0008DE60CEA135594EA0C0F08BF95EA0C0F5E
:1017C0003FF43BAF94EA0C0F0AD150EA01347FF4A6
:1017D00034AF95EA0C0F7FF425AF104619462CE77D
:1017E00095EA0C0F06D152EA03353FF4FDAE1046E0
:1017F000194622E750EA410618BF52EA43067FF431
:10180000C5AE50EA41047FF40DAF52EA43057FF4C0
:10181000EBAE12E700000000000000000000000036
:101820004FF0FF3C06E000BF4FF0010C02E000BFAC
:101830004FF0010C4DF804CD4FEA410C7FEA6C5C8F
:101840004FEA430C18BF7FEA6C5C1BD001B050EA32
:10185000410C0CBF52EA430C91EA030F02BF90EA1D
:10186000020F0020704710F1000F91EA030F58BFDC
:10187000994208BF90422CBFD8176FEAE37040F03E
:10188000010070474FEA410C7FEA6C5C02D150EADC
:10189000013C07D14FEA430C7FEA6C5CD6D152EA97
:1018A000033CD3D05DF8040B704700BF844610465C
:1018B00062468C461946634600E000BF01B5FFF75B
:1018C000B7FF002848BF10F1000F01BD4DF808ED2B
:1018D000FFF7F4FF0CBF012000205DF808FB00BFFC
:1018E0004DF808EDFFF7EAFF34BF012000205DF856
:1018F00008FB00BF4DF808EDFFF7E0FF94BF0120A3
:1019000000205DF808FB00BF4DF808EDFFF7CEFFA3
:1019100094BF012000205DF808FB00BF4DF808EDE2
:10192000FFF7C4FF34BF012000205DF808FB00BFB3
:101930004FEA410C7FEA6C5C02D150EA013C0AD1CB
:101940004FEA430C7FEA6C5C02D152EA033C02D1BD
:101950004FF0000070474FF001007047000000009A
:101960004FEA410212F5001215D211D56FF47873C7
:10197000B3EB625212D94FEAC12343F0004343EA6A
:10198000505311F0004F23FA02F018BF4042704745
:101990004FF00000704750EA013005D111F00040CF
:1019A00008BF6FF0004070474FF00000704700BF65
:1019B0004A0011D212F5001211D20DD56FF47873CE
:1019C000B3EB62520ED44FEAC12343F0004343EA23
:1019D000505323FA02F070474FF00000704750EA6E
:1019E000013002D14FF0FF3070474FF000007047D8
:1019F00080F0004002E000BF81F0004142001FBFC4
:101A00005FEA410392EA030F7FEA226C7FEA236CCC
:101A10006AD04FEA1262D2EB1363C1BFD2184140C1
:101A200048404140B8BF5B42192B88BF704710F057
:101A3000004F40F4000020F07F4018BF404211F0FA
:101A4000004F41F4000121F07F4118BF494292EA62
:101A5000030F3FD0A2F1010241FA03FC10EB0C008E
:101A6000C3F1200301FA03F100F0004302D549421B
:101A700060EB4000B0F5000F13D3B0F1807F06D3C8
:101A800040084FEA310102F10102FE2A51D2B1F1C0
:101A9000004F40EBC25008BF20F0010040EA0300B5
:101AA0007047490040EB000010F4000FA2F1010262
:101AB000EDD1B0FA80FCACF1080CB2EB0C0200FAEC
:101AC0000CF0AABF00EBC25052421843BCBFD0403A
:101AD0001843704792F0000F81F4000106BF80F4B4
:101AE00000000132013BB5E74FEA41037FEA226C77
:101AF00018BF7FEA236C21D092EA030F04D092F042
:101B0000000F08BF0846704790EA010F1CBF002075
:101B1000704712F07F4F04D1400028BF40F00040D2
:101B2000704712F100723CBF00F50000704700F0F2
:101B3000004343F0FE4040F4000070477FEA226219
:101B400016BF08467FEA23630146420206BF5FEAEA
:101B5000412390EA010F40F4800070474FF00003EA
:101B600004E000BF10F0004348BF40425FEA000CB1
:101B700008BF704743F0964301464FF000001CE059
:101B800050EA010208BF70474FF000030AE000BFAF
:101B900050EA010208BF704711F0004302D54042ED
:101BA00061EB41015FEA010C02BF8446014600205F
:101BB00043F0B64308BFA3F18053A3F50003BCFA7A
:101BC0008CF2083AA3EBC25310DB01FA02FC634427
:101BD00000FA02FCC2F12002BCF1004F20FA02F22E
:101BE00043EB020008BF20F00100704702F1200221
:101BF00001FA02FCC2F1200250EA4C0021FA02F282
:101C000043EB020008BF20EADC70704700000000D0
:101C100053B94AB9002908BF00281CBF4FF0FF3153
:101C20004FF0FF3000F074B9ADF1080C6DE904CE4F
:101C300000F006F8DDF804E0DDE9022304B07047A7
:101C40002DE9F047089E04468846002B4BD18A4276
:101C5000154667D9B2FA82F24AB1C2F1200701FAF9
:101C600002F320FA07F7954047EA030894404FEA49
:101C7000154E230CB8FBFEF71FFA85FC0EFB1788E8
:101C800043EA084307FB0CF1994209D9EB1807F125
:101C9000FF3080F01B81994240F21881023F2B44B3
:101CA0005B1AA4B2B3FBFEF00EFB103344EA03440C
:101CB00000FB0CFCA44509D92C1900F1FF3380F07E
:101CC0000781A44540F2048102382C4440EA0740D1
:101CD000A4EB0C0400271EB1D4400023C6E9004346
:101CE0003946BDE8F0878B4209D9002E00F0EB8021
:101CF0000027C6E9000138463946BDE8F087B3FA47
:101D000083F7002F47D18B4202D3824200F2FA8040
:101D1000841A61EB030301209846002EE0D0C6E947
:101D20000048DDE702B9FFDEB2FA82F2002A40F095
:101D30008F80491B4FEA154E1FFA85F80127B1FB2A
:101D4000FEFC230C0EFB1C1143EA014308FB0CF1C3
:101D5000994207D9EB180CF1FF3002D2994200F2F8
:101D6000CD808446591AA3B2B1FBFEF00EFB1014CD
:101D700043EA044408FB00F8A04507D92C1900F1F8
:101D8000FF3302D2A04500F2B6801846A4EB080447
:101D900040EA0C409FE7C7F1200CBB4022FA0CFE42
:101DA0004EEA030E01FA07F420FA0CF521FA0CF3BF
:101DB0004FEA1E482543B3FBF8F92C0C08FB1933F6
:101DC0001FFA8EFA44EA034309FB0AF49C4202FA22
:101DD00007F200FA07F10BD91EEB030309F1FF30FC
:101DE00080F087809C4240F28480A9F1020973440C
:101DF0001B1BADB2B3FBF8F008FB103345EA0344FC
:101E000000FB0AFAA24508D91EEB040400F1FF33D7
:101E10006BD2A24569D90238744440EA0940A0FB5C
:101E20000289A4EB0A044C45C2464B4654D351D018
:101E3000002E69D0B1EB0A0564EB030404FA0CFC34
:101E4000FD40FC404CEA0505C6E90054002747E781
:101E5000C2F1200320FA03F7954001FA02F021FABB
:101E600003F34FEA154E3843010CB3FBFEF71FFA9C
:101E700085F80EFB173341EA034107FB08F38B4259
:101E800004FA02F407D9691807F1FF3C2FD28B42FC
:101E90002DD9023F2944CB1A81B2B3FBFEF00EFBD1
:101EA000103341EA034100FB08F38B4207D969185C
:101EB00000F1FF3C17D28B4215D902382944C91AC8
:101EC00040EA07473BE73746304609E70746E7E67B
:101ED0001846FBE64145ABD2B8EB020A69EB0E02AD
:101EE00001381346A4E76046E9E7184695E76746D8
:101EF000D1E781467CE702382C4447E7ACF1020C7D
:101F00002B442FE7384608E73746E9E60000000093
:101F1000704700BF0000000000000000000000004B
:101F2000844641EA000313F003036DD1403A41D3E4
:101F300051F8043B40F8043B51F8043B40F8043BA3
:101F400051F8043B40F8043B51F8043B40F8043B93
:101F500051F8043B40F8043B51F8043B40F8043B83
:101F600051F8043B40F8043B51F8043B40F8043B73
:101F700051F8043B40F8043B51F8043B40F8043B63
:101F800051F8043B40F8043B51F8043B40F8043B53
:101F900051F8043B40F8043B51F8043B40F8043B43
:101FA00051F8043B40F8043B51F8043B40F8043B33
:101FB000403ABDD2303211D351F8043B40F8043BD3
:101FC00051F8043B40F8043B51F8043B40F8043B13
:101FD00051F8043B40F8043B103AEDD20C3205D3E3
:101FE00051F8043B40F8043B043AF9D2043208D0DB
:101FF000D2071CBF11F8013B00F8013B01D30B884D
:1020000003806046704700BF082A13D38B078DD02A
:1020100010F003038AD0C3F10403D21ADB071CBFFC
:1020200011F8013B00F8013B80D331F8023B20F866
:10203000023B7BE7043AD9D3013A11F8013B00F89F
:10204000013BF9D20B7803704B7843708B78837027
:102050006046704700000000000000000000000023
:10206000A2EB0300704700BF02780B78012A28BF5B
:102070009A42F5D16DE9044540EA0104CDE90267D1
:102080006FF0000C4FEA447212B380EA010414F0BE
:10209000070F6AD100F0070420F0070004F00305E1
:1020A00021F007014FEAC505F0E8042314F0040FFE
:1020B000F1E804670CFA05F462EA040266EA040631
:1020C0000AD063EA0403624667EA0407664603E04F
:1020D000F0E80423F1E8046782FA4CF582EA06048A
:1020E000A4FA8CF46CBB83FA4CF583EA0705A5FAD5
:1020F0008CF595B950E9022351E9026782FA4CF553
:1021000082EA0604A4FA8CF483FA4CF583EA070504
:10211000A5FA8CF52543DBD09CB92DBAB5FA85F428
:1021200024F0070427FA04F1DDE9026723FA04F337
:1021300003F0FF0001F0FF01FDE80445A0EB010002
:10214000704724BAB4FA84F424F0070426FA04F1A0
:10215000DDE9026722FA04F202F0FF0001F0FF015C
:10216000FDE80445A0EB0100704714F0030F3CD1DB
:1021700010F0030428D150F8082B51F8083B82FADC
:102180004CF582EA0305A5FA8CF55DB950F8042CEC
:1021900051F8043C82FA4CF582EA0305A5FA8CF565
:1021A000002DE8D02DBAB5FA85F424F0070423FAFF
:1021B00004F122FA04F202F0FF0001F0FF01FDE851
:1021C0000445A0EB010070474FEAC40420F003006F
:1021D00050F8082B21F0030151F8083B0CFA04F4E5
:1021E00062EA040263EA0403C9E710F003041AD0A8
:1021F000A1EB040120F00300E40750F8042B06D003
:102200000FD28B785FFAA2F4E41A06D12BB1CB7807
:102210005FFAB2F4E41A00D11BB920465DF8104B06
:10222000704701F1040150F8042BCC0721F00301A1
:1022300051F8043B48D824D222F07F4482FA4CF56E
:1022400094EA1325A5FA8CF50AD165B951F8043B37
:1022500084EA0204B4EB036F0ED150F8042BEBE7D1
:102260004FEA132355E035F07F454DD10878FDE85E
:102270000445C0F1000070474FEA126203F0FF030B
:1022800047E002EA1C4482FA4CF594EA1345A5FAA9
:102290008CF50AD165B951F8043B84EA0204B4EB29
:1022A000034F0CD150F8042BEBE74FEA134330E017
:1022B00015EA1C4528D10B884FEA124229E04FEA63
:1022C000124203EA1C4324E002F0FF0482FA4CF5B8
:1022D00094EA1365A5FA8CF50AD165B951F8043B67
:1022E00084EA0204B4EB032F09D150F8042BEBE786
:1022F0004FEA13630DE015F0FF0F05D10B684FEAAD
:10230000122223F07F4304E04FF00000FDE8044573
:10231000704712BA1BBA82FA4CF482EA0304A4FA98
:102320008CF5B5FA85F402FA04F203FA04F34FEAE5
:102330001260FDE80445A0EB136070470000000048
:1023400090F800F06DE9024520F007016FF0000CF5
:1023500010F0070491F820F040F049804FF000049D
:102360006FF00700D1E9002391F840F000F1080078
:1023700082FA4CF2A4FA8CF283FA4CF3A2FA8CF3B0
:102380004BBBD1E9022382FA4CF200F10800A4FA17
:102390008CF283FA4CF3A2FA8CF3E3B9D1E904236B
:1023A00082FA4CF200F10800A4FA8CF283FA4CF3A2
:1023B000A2FA8CF37BB9D1E9062301F1200182FA5C
:1023C0004CF200F10800A4FA8CF283FA4CF3A2FA62
:1023D0008CF3002BC6D0002A04BF04301A4612BA70
:1023E000B2FA82F2FDE8024500EBD2007047D1E973
:1023F000002304F00305C4F100004FEAC50514F002
:10240000040F91F840F00CFA05F562EA05021CBFD2
:1024100063EA050362464FF00004A9E700000000EC
:1024200001F0FF01102A2BDB10F0070F08D010F885
:10243000013B013A8B422DD010F0070F42B3F6D189
:10244000F0B441EA012141EA014122F007047FF0A2
:1024500000070023F0E80256083C85EA010586EAF9
:10246000010685FA47F5A3FA87F586FA47F6A5FA35
:1024700087F68EB9EED1F0BC01F0FF0102F0070241
:1024800032B110F8013B013A83EA010313B1F8D1EC
:102490000020704701387047002D06BF35460338CD
:1024A000073815F0010F07D1013015F4807F02BF06
:1024B000013015F4C03F0130F0BC0138704700BF57
:1024C0002DE9F04F2DED048BBD4ABE4B9269BE49FC
:1024D00091619FEDB57BA9B01B68BC49BC482793AF
:1024E0008DED0A7B00250AF033FD05F039FA05F081
:1024F00067FA05F03DFE202383F31188B04C0DF000
:10250000A7F80CF035F8A36A0CF052F80DF0B8F803
:102510002368A34207D0A2699B6892689A4202D2BC
:10252000AC480BF085FF002484F31188002D00F0E7
:102530005F8106F00DF80D9402F092F902F0B8F800
:1025400006F02EF801F064FF00F5A07382460C93AC
:10255000A34664E0DDE90445F1EE10FAC4BF464647
:102560004F4622462B4630463946FFF7B9F908B99F
:1025700034463D46B4EEC89AF1EE10FAB4EEE88A5D
:1025800040F19A80F1EE10FADDE9046740F19A809B
:10259000CDE9088932463B46DDE90801FFF7BEF97F
:1025A00008B9DDE9086732463B4620462946FFF771
:1025B0008DF900287BD132463B4620462946FEF75E
:1025C0005BFDDDE9042306460F4620462946FFF75A
:1025D0007DF900287BD142464B4620462946FFF72D
:1025E00075F9002840F08E80DDE906232046294653
:1025F000FFF76CF9002840F096806DA3D3E9002323
:10260000DDE90A01FFF78AF9002800F056810BF195
:10261000010B0C9B0AF1020A534500F095809AF8D1
:102620000050DFED6D9A9AF8014005F0F80307EECF
:10263000903AF8EEE77A6D0187EEA99AEDB219EEBD
:10264000100AFEF779FEE31003F01C031D4307EEAA
:10265000905AF8EEE77AE40087EEA98ACDE9040102
:1026600004F0F80418EE100AFEF766FE07EE904A32
:10267000F8EEE77A8046C7EEA98A894618EE900AF6
:10268000FEF75AFEB4EEC89A06460F46F1EE10FA6F
:10269000CDE90667B4EEE88A3FF75CAFF1EE10FAD9
:1026A00044464D463FF766AFDDE9066759E79FEDC3
:1026B0003E7B8DED0A7BAAE7F1EE10FA46464F46C7
:1026C0003FF571AF9DED067B8DED087B62E7DDE99F
:1026D000062340464946FEF7CFFC32463B46FEF70E
:1026E000B1FF00223D4BFEF783FE3D4B0022FEF77B
:1026F000C5FC9FED311B41EC100B18F0B9FF8DEDBF
:102700000A0B7AE7DDE90423DDE90601FEF7B4FCF4
:1027100032463B46FEF796FF0022304BFEF768FE3E
:102720000022304BE3E742464B46DDE90401FEF769
:10273000A3FC32463B46FEF785FF0022274BFEF7FF
:1027400057FE0022284BD2E70D9B28495A460EA877
:1027500019F096FC5C4601460EA803F0C1FB302C34
:1027600000F392800D9B302B4FF0000374DD19466F
:102770001846012203F0A4FF002301221946104647
:1027800003F09EFF002319460122022003F098FF68
:10279000002319460122032003F092FF64200CF06D
:1027A0001FFC0125A7E600BF00000000000000009C
:1027B0000000000000A0744000000000008076408F
:1027C00070270120000B002010F5010860F50108BA
:1027D0001C19002020F5010800007F4300004E4036
:1027E0000080764000005E4000006E4068F5010801
:1027F000234622462146204603F062FF2346224616
:102800002146012003F05CFF234622462146022098
:1028100003F056FF234622462146032003F050FFD3
:102820002821202240238DE80E0001200823C82201
:102830004FF49F7101F00CFD204601F079FD214617
:102840004FF4007001F0ACFD01F05AFF204601F09A
:102850006FFF01F0E5FEA4E71A461946184603F09B
:102860002FFF00231A461946012003F029FF0023F9
:102870001A461946022003F023FF00231A46194680
:10288000032003F01DFF89E700231A4618460121A3
:1028900003F016FF002301211A46084603F010FF3B
:1028A00000231A460121022003F00AFF00231A46E2
:1028B0000121032003F004FF70E700220F4BDDE944
:1028C0000A01FFF70DF800287FF4A1AEDDE90A4503
:1028D00000220B4B20462946FFF720F800283FF442
:1028E00098AE0022074B20462946FEF7F9FF002844
:1028F0003FF48FAE0D9B01330D938AE60000244018
:102900000040654000806B400000000000000000B7
:1029100000B5304B85B01B6803930DF091FF0BF0B1
:102920001FFD03F0D5FF2C4A2C492D480AF0A0FAD0
:10293000002211462B480AF0E3FB03F031FF002090
:1029400003F0E6FE002003F003FF05F009FF01F0AD
:1029500047FE01F0ADFB04F093FA05F0B9FB04F07B
:10296000E7FB00F04DFF03F013FB04F0C9FF03F099
:1029700017FE05F095FD09F07BFC05F039FC002001
:1029800000F0FEFF05F04CFE01F05AFB0BF098FC46
:1029900004F0B6FC144A134914480AF0B1FB13487A
:1029A00018F0C6FD12490F4806F002F818F090FD25
:1029B000104818F045FD002300930F480F4B4022AC
:1029C00040F678110CF0B4FA4FF47A700CF008FB72
:1029D000FAE700BF000B0020040B00200C0B0020C6
:1029E0001C1900202819002050F5010804190020A6
:1029F00000000E08100F002040190020C12400081C
:102A000000B5084B83B01A680192019A1B689A427C
:102A100005D1054803B05DF804EB0BF009BDFFF7E5
:102A2000EFFF00BF000B002030F5010800000000A0
:102A300030B54368174D1A68296883B00446019180
:102A400012B304220270DA681B68520811469847D4
:102A50002378042B18D0202383F311880CF028FE50
:102A60000BF0C6FD04F1080000210CF0F1FB0BF0A7
:102A7000DFFD0CF035FE002383F31188019A2B68EB
:102A80009A4204D103B030BD02232370E3E7FFF77D
:102A9000B7FF00BF000B0020000000000000000096
:102AA00070B5194D82B02B68019311F00C0F0C46D4
:102AB000064622D114F0200109D0019A2B689A42CF
:102AC0001FD1304602B0BDE87040FFF7B1BFE3064A
:102AD0000DD57268136853B1019C2868844210D1E7
:102AE000D2683046520802B0BDE870401847019ADB
:102AF0002B689A4205D102B070BD04480BF098FCD7
:102B0000D8E7FFF77DFF00BF000B0020A0F501080C
:102B100070B5194D82B02B68019311F00C0F0C4663
:102B2000064622D114F0200109D0019A2B689A425E
:102B30001FD1304602B0BDE87040FFF779BFE30611
:102B40000DD57268136853B1019C2868844210D176
:102B5000D2683046520802B0BDE870401847019A6A
:102B60002B689A4205D102B070BD04480BF060FC9E
:102B7000D8E7FFF745FF00BF000B0020A0F50108D4
:102B800030B50F4D0F4C2A680F4B83B02046019291
:102B90004FF6FF721A8000F05BFC0C4B01992A681B
:102BA0000B480C4D2562636203F1240591420A4BE8
:102BB0002363C4E90A5001D103B030BDFFF720FF01
:102BC000000B0020D0220020B8220020A80C020810
:102BD0001E010100003C0040460001000000000012
:102BE00070B52C4D03782A6882B0012B04460192FF
:102BF00024D06368E26A5989236B22F4F04223F4FB
:102C0000F043090544BF42F4205243F42053C4E981
:102C10000B23236A00221A606268236A52891A60B1
:102C2000236A03225A60226A136843F04003136048
:102C3000019A2B689A422BD102B070BD164EB04259
:102C40000AD0D4E9083212680C339360A26A236A6E
:102C500012680C339360CCE70346104A406A0A219D
:102C600011F05EFB80B9B06A0B4B0D4A0A2111F0DE
:102C700057FB28B90B4A136C43F400431364E0E795
:102C800009480BF0D5FBF5E707480BF0D1FBEAE765
:102C9000FFF7B6FE000B0020D0220020112B000809
:102CA000A12A00080038024080F501080000000059
:102CB00070B5456A174C2D68266882B00196EB60A6
:102CC000436A1B685960456AC36A2D6843F4806390
:102CD0002B60836A1B68DA60836A1B685960826AAA
:102CE000036B126843F480631360436A1A681368C5
:102CF00043F001031360836A1A68136843F0010309
:102D00001360019A23689A4201D102B070BDFFF7A7
:102D100077FE00BF000B0020000000000000000054
:102D200030B5104D81682B680F4A83B001930B6852
:102D300023F001030B608168946A03E0936A1B1B14
:102D4000C72B09D8086810F00100F7D1019A2B6849
:102D50009A4204D103B030BD4FF0FF30F6E7FFF7E1
:102D60004FFE00BF000B0020702701200000000074
:102D700070B51C4E82B03368019311F00C0F0D46F4
:102D8000044610D0C268117A52683D238B4013600C
:102D90000378032B21D0062263682270DB6813B10D
:102DA000002120469847AA060BD563685B6873B17B
:102DB00001993268914213D1204602B0BDE87040BB
:102DC0001847EB0603D563689B68002BF0D1019A86
:102DD00033689A4204D102B070BDFFF7A1FFDAE771
:102DE000FFF70EFE000B00200000000000000000B6
:102DF000F0B5284D83B02B6801930CF0F1FB0BF07C
:102E000037FC254B1E69F20715D55A69234C42F051
:102E100001025A612778BB1F012B2AD9052263685A
:102E200022701B680BB120469847042F27D0022F31
:102E300025D003232370B30710D5174A174C5369C5
:102E400043F0020353612378032B1DD06368DB68D2
:102E50000622227013B10121104898470BF030FC74
:102E6000019A2B689A4213D103B0BDE8F0400DF0EF
:102E7000A7BC019A2B689A420AD103B0F0BD022385
:102E80002370B307EAD5D8E72046FFF749FFDDE70F
:102E9000FFF7B6FD000B002000000550BC2200200B
:102EA00030B50B4D0B4C2B6883B02046019300F0DE
:102EB0002FF9019A2B680848084D094921619A4267
:102EC000C4E9025001D103B030BDFFF799FD00BF46
:102ED000000B0020BC220020440D02080000055019
:102EE0001E5503020000000000000000000000006A
:102EF0002DE9F0412F4C0578266882B0012D01960E
:102F000006D0019A23689A4252D102B0BDE8F081FE
:102F1000294DA842F5D10E4690461F46274AE8683B
:102F20002B460C2111F0FCF9002839D1D5E90232E9
:102F3000126828339360EB681A68042151611B689A
:102F4000C3F80C80EB681A6817611B68B6085E60EE
:102F50002B694FB343F480232B61E968184A096851
:102F60000B60EB6819680B6843F001030B60536B4F
:102F700043F0010353630B214E2010F0B1FED5E95D
:102F80000113DA6842F00102DA60DA6842F0020204
:102F9000DA600A6922F4804222F001021A60B0E786
:102FA00008480BF045FAC1E723F480232B61D4E7EE
:102FB000FFF726FD000B0020BC220020712D000829
:102FC00000380240B0F501080000000000000000D9
:102FD00030B5184C0378226883B0022B019205D0DB
:102FE000019A23689A4223D103B030BD124B984214
:102FF0000546F5D18168114A0B6823F4804323F01C
:1030000001030B608168CB6823F00F03CB60536B27
:1030100023F0010353634E2010F08AFE019A2368C7
:103020009A4205D1E86803B0BDE8304011F0E0B93C
:10303000FFF7E6FC000B0020BC2200200038024015
:1030400000B50F4B0278196883B0022A01910ED1A6
:1030500081680A6842F002020A6081680A6842F4E4
:1030600080420A6081680A6842F001020A60019A9F
:103070001B689A4202D103B05DF804FBFFF7C0FC65
:10308000000B002000000000000000000000000015
:1030900000B50F4B0278196883B0022A01910ED156
:1030A00081680A6822F002020A6081680A6842F4B4
:1030B00080420A6081680A6842F001020A60019A4F
:1030C0001B689A4202D103B05DF804FBFFF798FC3D
:1030D000000B0020000000000000000000000000C5
:1030E00000B5074B83B01A680192019A1B689A4297
:1030F00004D103B05DF804EBFFF7D2BEFFF780FC0C
:10310000000B002000000000000000000000000094
:1031100000B5084B83B01A68019201220270019A2F
:103120001B6800219A42416002D103B05DF804FBA4
:10313000FFF766FC000B002000000000000000000C
:103140002DE9F043254D83B02C680194DDF82890DB
:103150000F4616469846044618B111B1204B9A42C4
:103160002FD920480BF064F9202383F311880CF049
:103170006FFA0BF0FDF92378012B02D019480BF000
:1031800057F94246314620464B466760FFF7B0FE8E
:10319000022323700BF00CFA0CF072FA124B1A682F
:1031A0009A4204D0996993688A689A420FD300239F
:1031B00083F31188019A2B689A420CD103B0BDE8C1
:1031C000F0839307CDD1B8F1000FCDD1C9E70748FF
:1031D0000BF02EF9EBE7FFF713FC00BF000B00200C
:1031E000FCFF0300E0F5010870270120D0F501087D
:1031F00030B51C4D83B02B680193044658B320238F
:1032000083F311880CF024FA0BF0B2F92378022B27
:1032100002D015480BF00CF92046FFF7D9FE012328
:1032200023700BF0C5F90CF02BFA104B1A689A4278
:1032300004D0996993688A689A4208D3002383F37B
:103240001188019A2B689A4209D103B030BD084811
:103250000BF0EEF8F2E704480BF0EAF8CFE7FFF7DF
:10326000CFFB00BF000B0020F0F501087027012004
:10327000D0F5010800000000000000000000000080
:1032800030B51C4D83B02B680193044658B32023FE
:1032900083F311880CF0DCF90BF06AF92378022B28
:1032A00002D015480BF0C4F82046FFF7C9FE0423EE
:1032B00023700BF07DF90CF0E3F9104B1A689A4279
:1032C00004D0996993688A689A4208D3002383F3EB
:1032D0001188019A2B689A4209D103B030BD084881
:1032E0000BF0A6F8F2E704480BF0A2F8CFE7FFF7DF
:1032F00087FB00BF000B002000F6010870270120AB
:10330000D0F50108000000000000000000000000EF
:1033100030B51C4D83B02B680193044658B320236D
:1033200083F311880CF094F90BF022F92378022B27
:1033300002D015480BF07CF82046FFF7A9FE0323C6
:1033400023700BF035F90CF09BF9104B1A689A4278
:1033500004D0996993688A689A4208D3002383F35A
:103360001188019A2B689A4209D103B030BD0848F0
:103370000BF05EF8F2E704480BF05AF8CFE7FFF7DE
:103380003FFB00BF000B002020F601087027012042
:10339000D0F501080000000000000000000000005F
:1033A00030B51A4D83B02B680193044638B32023FF
:1033B00083F311880CF04CF90BF0DAF80223204665
:1033C0002370FFF705FE012323700BF0F1F80CF0DA
:1033D00057F90F4B1A689A4204D0996993688A6822
:1033E0009A4208D3002383F31188019A2B689A42EA
:1033F00009D103B030BD07480BF01AF8F2E70648D0
:103400000BF016F8D3E7FFF7FBFA00BF000B002024
:1034100070270120D0F5010830F6010800000000F7
:1034200000B5074B83B01A680192019A1B689A4253
:1034300004D103B05DF804EBFFF7A2BBFFF7E0FA9D
:10344000000B002000000000000000000000000051
:1034500000B50A4B83B01A680192012202700199EB
:103460001A6800239142C0E9013305D10C3003B042
:103470005DF804EB0CF024BAFFF7C2FA000B002051
:1034800070B51E4D82B02B6801930E46044670B392
:1034900069B3202383F311880CF0DAF80BF068F895
:1034A0002378013B012B02D915480AF0C1FF2046C1
:1034B0006660FFF795FB022323700BF079F80CF0A0
:1034C000DFF8104B1A689A4204D0996993688A68A9
:1034D0009A4208D3002383F31188019A2B689A42F9
:1034E00009D102B070BD08480AF0A2FFF2E7044813
:1034F0000AF09EFFCDE7FFF783FA00BF000B002024
:1035000050F601087027012040F601080000000075
:103510002DE9F041214D82B02C6801940E46904671
:103520001F46044600B171BB1D480AF081FF2023ED
:1035300083F311880CF08CF80BF01AF82378022B27
:1035400002D017480AF074FF03203B46424631463A
:1035500020702046FFF7ACFB0BF02AF80CF090F837
:10356000104B1A689A4204D0996993688A689A4203
:103570000ED3002383F31188019A2B689A420BD152
:1035800002B0BDE8F081002BCED0002ACFD1CBE72E
:1035900005480AF04DFFECE7FFF732FA000B002078
:1035A00060F601087027012040F6010800000000C5
:1035B00000B5084B83B01A680192019A1B689A42C1
:1035C00005D1054803B05DF804EB0AF031BFFFF701
:1035D00017FA00BF000B002080F601080000000071
:1035E00070B5194A194C1578236882B001934FF4CD
:1035F000B47303FB00F665B1019A23689A4220D1A7
:1036000013481449B1FBF6F102B0BDE870400DF06B
:1036100007BF114911484D60012515708022428372
:103620000F4A10480DF044FD019A23689A4208D1D0
:1036300007480849B1FBF6F102B0BDE870400DF053
:1036400057BFFFF7DDF900BF28230020000B002043
:103650002435012000BD010518230020000C024084
:1036600090F60108C03101200000000000000000B9
:10367000F0B51A4D1A4C2E78276883B0019717467B
:1036800066B1019A23689A4226D116481649B1FBC1
:10369000F7F103B0BDE8F0400DF0C2BE134EDFF805
:1036A00054C0736002464FF0010E80200B4685F82F
:1036B00000E03146ACF81A000D480DF0F9FC019A13
:1036C00023689A4208D107480749B1FBF7F103B0D4
:1036D000BDE8F0400DF00CBFFFF792F92823002061
:1036E000000B00202435012000BD01051823002017
:1036F000C0310120000C024000000000000000006A
:10370000F0B5114C83B02368019305460F480E466F
:1037100017460DF025FF0E480DF05AFD33462A4698
:103720000C490B480DF08CFC019A23689A4208D191
:1037300006480949B1FBF7F103B0BDE8F0400DF0D0
:10374000AFBEFFF75DF900BF000B0020243501205C
:10375000C03101201823002000BD01050000000039
:1037600010B50C4C0C4B22680C4882B001928022A0
:103770001A830DF0F5FE0A480DF02AFD019A236820
:10378000084900209A42087001D102B010BDFFF72D
:1037900037F900BF000B0020000C02402435012047
:1037A000C03101202823002000000000000000009C
:1037B00010B50C4C0C4B22680C4882B00192802250
:1037C0001A830DF0F5FE0A480DF0B2FC019A236849
:1037D000084900209A42087001D102B010BDFFF7DD
:1037E0000FF900BF000B0020000C0240243501201F
:1037F000C03101202823002000000000000000004C
:1038000070B5154D154A164B2968164E9E6082B04C
:1038100000244FF40060108001919470114612480A
:103820005C6001221A60DC600DF0C2FB0F4B104E91
:1038300010485C60202219469A60DC601E600DF022
:10384000A7FD019A2B689A4204D102B0BDE87040EE
:10385000FFF7AEBFFFF7D4F8000B002014230020C1
:1038600018230020B1350008C031012004230020B6
:1038700000BD01052435012000000000000000000B
:103880002DE9F04F394A3A4B126883B00124019276
:103890001C70002963D04FF00008364CC246C34666
:1038A000C1464746C446434647F6FF7E1DE0AB454A
:1038B000A8BFAB46024432F9026CB2F90450B442DC
:1038C000B8BF3446B645A8BFB6464D4545DCA84509
:1038D000A8BFA846B2F90220BA420EDC04339245D2
:1038E0009BB2A8BF924699420CD95D1C6A0030F980
:1038F00015506545DBDDAC46DCE704339BB29942ED
:103900001746F2D8A4EB0E04ACEB0B0CA7EB0A079E
:10391000A9EB0808A4B21FFA8CFCBFB21FFA88F802
:10392000154A12491480019C0968144BA2F802C080
:103930009780B0F8F8C4B0F8FA64A2F80680B0F83E
:10394000FC54B0F8FE24A3F800C08C425E809D8039
:10395000DA8008D103B0BDE8F08FA946BAE78846FF
:103960000F468C46DCE7FFF74BF800BF000B00204A
:10397000292300200080FFFF342300202C23002077
:1039800070B53F4B3F4C1A78236882B0012A0193EF
:1039900005D0019A23689A4270D102B070BD3A49AD
:1039A0003A4B4D6C45F480354D644E6A002546F423
:1039B00080364E624D621D61DD60196A21F00101A1
:1039C0001962996921F003019961996941F0010136
:1039D0009961996921F0F0019961196A21F00A0150
:1039E0001962996921F00C019961996821F07001BF
:1039F0009960996841F050019960996821F480318B
:103A000021F007019960996841F0070199601968F0
:103A100021F440711960DA629D625A61196A21F0DD
:103A200010011962996921F440719961996921F035
:103A3000807121F4E0419961996941F4C041996133
:103A4000196A21F0A00119629A639A6942F400622E
:103A50009A611A6A22F480621A621A6A42F01102AA
:103A60001A621A6842F001021A6020B1009068469A
:103A700000F076F98DE7064B0093F8E7FEF7C0FFFC
:103A8000AC340120000B002000380240004001400F
:103A90008138000800000000000000000000000065
:103AA00070B5114C82B0236801930E461546202351
:103AB00083F311880BF0FCFD0AF09AFD0B4B0C48C8
:103AC000C3E900650BF0BCFE0AF0B2FD0BF008FE86
:103AD000002383F31188019A23689A4201D102B02E
:103AE00070BDFEF78DFF00BF000B00205038002096
:103AF0003C23002000000000000000000000000047
:103B000070B5114C82B0236801930E4615462023F0
:103B100083F311880BF0CCFD0AF06AFD0B4B0C48C7
:103B2000C3E900650BF08CFE0AF082FD0BF0D8FDB6
:103B3000002383F31188019A23689A4201D102B0CD
:103B400070BDFEF75DFF00BF000B00203436002083
:103B50003C230020000000000000000000000000E6
:103B60002DE9F04F624B63499A69634B916185B0CF
:103B70001B6803935E4B9B6993F821305B0700F150
:103B8000AD805E480BF024FE5C480BF021FE584BE4
:103B90009B6993F8212012F0040240F09F80584D59
:103BA00058482B6801680446406805EB830304EB22
:103BB000810103F50279430001F10808019343D024
:103BC000DFF850B1504BDFF85CA1012018F812501B
:103BD00018F8006019F8121019F8004005F0550C9B
:103BE000770806F0550613F80CC09E5D01F0550EDF
:103BF0004CEA061649084FEA540C01F0550104F04E
:103C000055040CF0550C6D0813F80EE0595C1C5D62
:103C100013F80CC00BF8126005F0550507F05507B6
:103C200041EA0C114EEA041E0AF812E05D5D0AF842
:103C30000010DF5D0199013245EA071591420BF84A
:103C4000005000F10200C1D1304B31493148324DB2
:103C50000422FCF70DFC314B314932480422FCF7B9
:103C600007FC314B314932480422FCF701FC314B4F
:103C7000314932480422FCF7FBFBDFF8D4C0286846
:103C80009CF80070224A264900EBC71302F1400657
:103C900014881C8054885C804C889C80043231F8E5
:103CA000044BDC80964203F10803F1D1092F11D1B6
:103CB000234B00221B688CF800204FF4207198479A
:103CC0002B68204A204993420B6006BF1F4B2B6094
:103CD0002A604FE701378CF800704BE7064B039AD8
:103CE0001B689A4202D105B0BDE8F08FFEF788FE4E
:103CF0007027012060F90108000B00203C23002000
:103D00005038002034360020200B00200C340020D6
:103D1000C828002008290020A00B002074340020AF
:103D2000DC3400201C35002040340020CA2800204C
:103D300009290020A8340020DE3400201D35002091
:103D40001C360020082A0020A40B0020082F002089
:103D50000834002000000000000000000000000007
:103D60002DE9F04F494A0168494B116085B00021A7
:103D70000E461B68474803930BF0CAFC4FF4AF6133
:103D8000454B009641224548454DDFF84891454C4A
:103D9000DFF844A1444F0BF0CBF8444B444A186081
:103DA000136BC5F804A043F480534FF002184FF48E
:103DB0007A5B13632846C5E90298A5F800B0FCF7C2
:103DC0009FFA2046C4E901A9C4F80C80A4F800B009
:103DD000FCF796FA05F13400C5E90EA9C5F8408054
:103DE000A5F834B0FCF78CFA324DC4F8408004F1E9
:103DF0003400C4E90EA9A4F834B0FCF781FA3146C6
:103E000040F20C42384618F0A3F8DFF8D0902A4A66
:103E10006E604FF400634FF080082E812A606B8142
:103E2000264CC5F80C80C7F80894FFF7F9FA294624
:103E30002348244DFFF724FB07F5027307F108021E
:103E40004FF480711E48FFF763FB314620464FF464
:103E5000037218F07DF81C4B1C4AC4F80892083411
:103E60001A611946C3E900641948C3E902850DF0D7
:103E7000F7FD074B039A1B689A4205D1144805B019
:103E8000BDE8F04F0DF034BEFEF7BAFD1C36002041
:103E9000000B00203C230020613B00085023002041
:103EA0000C340020743400205038002048230020B7
:103EB0000038024040380020A13A00083436002083
:103EC000D0220020013B0008203600202C030800EF
:103ED000AC340120000020410000FA45EFBEADDE09
:103EE00030B50F4C83B0236801930D4608B1FFF73E
:103EF00077FB4FF47A700B4900FB05F000F2E730D6
:103F0000A1FB003080090BF06BF8019A23689A42FC
:103F100004D103B0BDE83040FFF74ABCFEF770FDA6
:103F2000000B0020D34D62100000000000000000D4
:103F30002DE9F0432DED028BDFF8FC80344BD8F8EF
:103F4000182034491B68344DDFED348A9FED348AE4
:103F5000344E354F916183B00193202383F3118850
:103F60000BF076FB0AF004FB30480BF019F92860DF
:103F70000AF01EFB0BF084FBD8F80030434508D054
:103F8000D8F818209B6892689A4202D228480AF012
:103F90004FFA4FF0000989F311882B681A8972BB18
:103FA00030E0D3E9001202EB890393ED007A31F897
:103FB0001900C8EE877A09F10109FCEEE77A17EEDD
:103FC000903A9CB22146FFF78BFF07EE904AF8EE3D
:103FD000E77A4FF47A7367EE887AFCEEE77A17EEA9
:103FE000902A90B203FB00F000F2E730A7FB00300C
:103FF00080090AF0F5FF2B681A894A4502DD3278FC
:10400000002ACED100230B4833700BF0A1FEA4E7A9
:10401000000B002070F90108603C002000007A4489
:104020006666A63FA80B0020D34D62105C3C0020C2
:1040300080F90108AC0B002070270120000000006F
:1040400010B50A4C0A4B22680A4884B04FF4FC7140
:1040500003920022009240220AF06AFF039A23682A
:104060009A4201D104B010BDFEF7CAFC000B00203B
:10407000313F0008683C0020000000000000000004
:1040800000B5074B07491A68087083B00192019A7E
:104090001B689A4202D103B05DF804FBFEF7B0FC46
:1040A000000B0020603E0020000000000000000027
:1040B00030B5274C83B02368019301F0C1FF254937
:1040C00025480DF08DFD0122002123480DF020FE32
:1040D0004FF47A700AF084FF01F0E2FE01281DD04F
:1040E00001F0CEFA0128054609D000F001FF0128B1
:1040F00020D0019A23689A4228D103B030BD174BD3
:10410000187001F0DDF9019A23689A421ED1294600
:10411000284603B0BDE8304001F0F2B9019A2368A7
:104120000E4900209A42087010D103B0BDE830401B
:1041300001F036BE019A2368084902209A420870AD
:1041400004D103B0BDE8304000F01ABEFEF758FCC1
:10415000000B002090F9010888350120B40B0020E5
:1041600000B5174B174A93F90030116883B00191DD
:1041700001995BB1012B18D0022B13680ED0994224
:104180004FF0000019D103B05DF804FB13689942A9
:1041900013D103B05DF804EB01F062BE99420CD17B
:1041A00003B05DF804EB00F083BE1368994204D1BC
:1041B00003B05DF804EB01F043BAFEF721FC00BF49
:1041C000B40B0020000B00200000000000000000E5
:1041D00010B51B4B1B4C93F90030226882B0019242
:1041E000B3B1012B21D0022B06D00020019A236805
:1041F0009A4223D102B010BD134B1B788BB1019AA8
:1042000023689A421AD102B0BDE8104000F050BEB7
:10421000019A23689A4211D102B0BDE8104001F022
:104220001FBE00F045FE4000E0E7019A23689A4275
:1042300004D102B0BDE8104001F002BAFEF7E0FB85
:10424000B40B0020000B0020B50B00200000000084
:10425000F0B5314D314C324E95F900502768307031
:1042600083B001979DF824609DF8287065B9019D81
:10427000D8B1206885424CD13020CDE9096703B020
:10428000BDE8F04001F09CBA012D19D0022D38D1C3
:1042900018B3019D206885423BD10120CDE9096713
:1042A00003B0BDE8F04000F003BC2068854230D187
:1042B0004420CDE9096703B0BDE8F04001F080BAC1
:1042C000019DB8B92068854223D1CDE909670D2049
:1042D00003B0BDE8F04000F07BBEDDF804C020680C
:1042E000844516D12846CDE9096703B0BDE8F04002
:1042F00000F0DEBB206885420BD1CDE909670820BC
:10430000E6E7019A23689A424FF0FF3001D103B0EB
:10431000F0BDFEF775FB00BFB40B0020000B0020C2
:10432000B50B0020000000000000000000000000AD
:1043300000B5174B174A93F90030116883B001910B
:1043400001995BB1012B11D0022B136816D1994250
:104350001BD103B05DF804EB00F052BD1368994225
:1043600013D103B05DF804EB01F0EABC1368994285
:104370000BD103B05DF804EB01F0F2B899424FF0B5
:10438000FF3002D103B05DF804FBFEF739FB00BF3C
:10439000B40B0020000B0020000000000000000013
:1043A00010B5174B174A93F90030146882B0019486
:1043B00063B1012B13D0022B0199136818D19942D4
:1043C0001CD102B0BDE8104000F042BD019C136852
:1043D0009C4213D102B0BDE8104001F009BD019C20
:1043E00013689C420AD102B0BDE8104001F0E8B861
:1043F00099424FF0FF3001D102B010BDFEF700FB33
:10440000B40B0020000B00200000000000000000A2
:10441000F0B5124F83B03B68019300F0A1F9104B47
:1044200093F90030022B064606D0019A3B689A4267
:10443000304610D103B0F0BD0A4B1C7824B1F4E72C
:10444000735D33550134A4B2FFF7C2FE6500ADB20F
:104450008542F5D3E9E7FEF7D3FA00BF000B002051
:10446000B40B0020B50B002000000000000000008D
:1044700000B5084B08491A6883B000200192019AE0
:104480001B6808709A4202D103B05DF804FBFEF786
:10449000B7FA00BF000B0020673E002000000000BC
:1044A00010B5104C82B023680193202383F3118848
:1044B0000BF0FEF80AF09CF80B4B0C4801221A7026
:1044C0000BF01EFC0AF0B4F80BF00AF9002383F39A
:1044D0001188019A23689A4201D102B010BDFEF7FB
:1044E0008FFA00BF000B002070D40020B80B002012
:1044F00010B50F4C0F4B2268197082B02023019227
:1045000083F311880BF0D4F80AF072F80A480BF024
:10451000F7FB0AF08DF80BF0E3F8002383F3118822
:10452000019A23689A4201D102B010BDFEF768FAE1
:10453000000B0020643E0020B80B002000000000AB
:1045400000B51F4A1F4B127818681F4983B00190AD
:1045500001208242087006D0019A1B689A422CD131
:1045600003B05DF804FB1949194A0978D268814201
:10457000126811D017481849007809680128106896
:1045800006D000030ED51069884212D0D160E3E74F
:104590000003FBD41161DFE71068104900030968CC
:1045A000F8D5F3E7D0688842F4D10C490968116165
:1045B000D2E70A490968D160CEE7FEF721FA00BFC9
:1045C000663E0020000B0020673E0020613E002078
:1045D000BC220020623E002068D400206CD4002061
:1045E00030B50B4C0B4D236883B00193FEF778FD7B
:1045F000094B0199226809482B60914203F59643C3
:10460000036002D1002003B030BDFEF7F9F900BF0E
:10461000000B002068D40020683E00206CD40020ED
:1046200030B51B4D1B4C2B78226885B0012B0392B3
:1046300025D0FFF7CDFD184B1B78024653B9B0F5D6
:10464000164F20D8154900930B6815481549FEF7F9
:1046500077FD0BE0B0F5964F15D813490F4B09685D
:104660001B680F4800910F49FEF76AFD01232B706C
:104670000020039A23689A4208D105B030BD08484B
:10468000FEF7B6FDD5E74FF0FF30F2E7FEF7B8F9D9
:10469000653E0020000B0020663E002068D400200C
:1046A000BC220020D0F901086CD4002000000000DA
:1046B00010B50C4C0C48236882B001930BF0E8F95C
:1046C0000A480BF0C5FB0A4B019A187823689A42F6
:1046D00005D1B0FA80F04009404202B010BDFEF7AB
:1046E0008FF900BF000B0020C00B0020B80B00208A
:1046F00070D4002000000000000000000000000056
:1047000000B5084B08491A6883B000200192019A4D
:104710001B6808709A4202D103B05DF804FBFEF7F3
:104720006FF900BF000B0020663E00200000000073
:1047300000B5074B07491A68087083B00192019AC7
:104740001B689A4202D103B05DF804FBFEF758F9EA
:10475000000B0020633E002000000000000000006D
:1047600070B5294B294C1878294D236882B00193E4
:104770002B7858B9012B03D0264A012310682B70DF
:10478000019A23689A423DD102B070BD012B37D007
:10479000214E3378012B33D0204B1B78FBB9204BB3
:1047A0001C4ADB6811681B681A68100307D5DA68B1
:1047B0008A424FF0010221D03270D868E0E71A69CE
:1047C0008A424FF0010208D032701869D8E71A699E
:1047D000096891424FF00102F6D12A70F5E7FFF720
:1047E00067FF0F4B0B49DB681B681A681203EED595
:1047F000DA68096891424FF00102DDD12A70DCE7E6
:104800000020BDE7FEF7FCF8663E0020000B00200C
:10481000613E002068D40020623E0020673E0020F8
:10482000BC2200200000000000000000000000008A
:1048300010B5084B084C1A68084882B001920199DB
:104840001A68002391422370037001D102B010BD99
:10485000FEF7D6F8000B0020613E0020623E0020EB
:1048600010B5174A174B1278196882B00191F2B14E
:10487000154A1648164C117800220270227015480D
:1048800051B101991B680270994216D1124802B0C9
:10489000BDE81040FEF73CBD019A1B6801709A42CA
:1048A0000BD10D4802B0BDE81040FEF7E9BC019AFB
:1048B0001B689A4201D102B010BDFEF7A1F800BFFB
:1048C000653E0020000B0020633E0020623E002079
:1048D000613E002070D40020BC22002000000000B7
:1048E00010B50D4B0D4C1A78216882B0012A019148
:1048F00008D0019A23689A420CD102B0BDE810405A
:10490000FFF78EBE0649074800220A701A70FEF7AC
:1049100047FDEEE7FEF774F8653E0020000B00202F
:10492000643E0020BC2200200000000000000000C7
:1049300070B51C4C1C4E86B0336805930546204666
:104940008DF810108DF811200DF01AF82378012B36
:104950000CD000233222CDE901322946009304AA6B
:10496000022320460CF034FF054648B90D480DF0EF
:1049700027F80020059A33689A4210D106B070BD1E
:1049800001F096FB2378052B04D006480DF018F8AB
:1049900028B2EFE701F074FB01F052FBF5E7FEF7F8
:1049A0002FF800BFF0310120000B002000000000B4
:1049B0002DE9F043224C234F87B03B680593064610
:1049C00020468DF8101090460CF0DAFF2378012B6A
:1049D00023D00023B6B24FF03209CDE9013900935C
:1049E0003146012304AA20460CF0F2FE054648B1E8
:1049F00001F05EFB2378052B1AD011480CF0E0FF84
:104A000068B20EE0CDF800904246314601232046C0
:104A10000CF04EFF05460028EAD109480CF0D0FF03
:104A20000020059A3B689A4207D107B0BDE8F083A1
:104A300001F026FB01F004FBDFE7FDF7E1FF00BF1B
:104A4000F0310120000B00200000000000000000F9
:104A500030B583B002AA124C002322F8083D054667
:104A6000236801930A212120FFF7A2FF28B1019AB0
:104A700023689A4211D103B030BD0DF101020B2120
:104A80002120FFF795FF0028F1D19DF800209DF827
:104A9000013043EA02232B80E9E7FDF7B1FF00BFB5
:104AA000000B0020000000000000000000000000DB
:104AB0002DE9F04F01F1B70505EB030BAB4F85B0C6
:104AC000BBF5447F3C6803944FF0000128BFABF571
:104AD000447BB3F5207FDDF8389001901C4602F14D
:104AE0000A0A8DF80A10ADF808109DF83C609DF890
:104AF000408000F20F81B9F5F07F00F20B81B5F52F
:104B0000207F00F20D81BAF5F07F00F20C81B045F4
:104B100000F2038102AA72212120FFF749FF10BB96
:104B20009DF80820402E02F0CC028DF8082000F0FD
:104B3000D980802E00F0CC80202E00F0B180B8F11A
:104B4000400F00F0B380B8F1800F00F0D580B8F1CD
:104B5000200F00F0B980C5F3C70217212120FFF70D
:104B6000E7FE40B238B1039A3B689A4240F0E480D5
:104B700005B0BDE8F08FCBF3C70218212120FFF765
:104B8000D7FE40B20028EED14FEACB0303F0380243
:104B900005F007052A4332212120FFF7C9FE40B264
:104BA0000028E0D1CAF3870219212120FFF7C0FEB7
:104BB00040B20028D7D1D144C9F387021A2121205D
:104BC000FFF7B6FE40B20028CDD14FEA890909F0BF
:104BD0000C090AF0030249EA020203212120FFF72F
:104BE000A7FE40B20028BED10DF109023E212120CE
:104BF000FFF7DEFE0028B6D19DF8093023F0070349
:104C000043F008030DF10A02732121208DF80930C9
:104C1000FFF7CEFE0028A6D19DF80A3003F0F80376
:104C200063F00F02402E8DF80A2000F09280802E53
:104C300000F08480202E03D1B8F1200F00F0948082
:104C400004220C212120FFF773FE40B200288AD1F4
:104C50009DF809203E2142F010022120FFF768FE56
:104C600040B200287FF47FAF9DF8082072212120F8
:104C7000FFF75EFE40B200287FF475AF9DF80A2072
:104C800073212120FFF754FE40B200287FF46BAF60
:104C9000374B9DF804201A715E7183F8068062E735
:104CA000334AB8F1400F14807FF44DAF19F0010F73
:104CB0003CD19DF808102E4841F010014FEA5902EE
:104CC0008DF80810428046E7294AA2F8029042E790
:104CD000A3072ED1264942F00202A4088DF808202D
:104CE0000C802CE7E10724D4214942F0010264083A
:104CF0008DF808200C8022E719F0030F16D19DF8DB
:104D000008101B4841F020014FEA99028DF8081065
:104D1000428020E76FF0070025E76FF0030022E7ED
:104D20006FF001001FE76FF002001CE76FF0060054
:104D300019E76FF0050016E7FDF762FE9DF8092000
:104D400063F00D0342F002028DF80A308DF809205D
:104D500076E79DF8092063F00E0342F001028DF81A
:104D60000A308DF809206BE700226AE7000B00206B
:104D700074D40020000000000000000000000000CB
:104D800010B51E4C86B02368059380221221212085
:104D9000FFF7CEFD0A200AF023F9802211212120FD
:104DA000FFF7C6FD04223A212120FFF7C1FD0422AE
:104DB00012212120FFF7BCFDD02240212120FFF746
:104DC000B7FD022215212120FFF7B2FD8422B02178
:104DD0002120FFF7ADFD20237822CDE90133009299
:104DE000A023B422F0210120FFF762FE059A236878
:104DF0009A4201D106B010BDFDF702FE000B002063
:104E000030B583B002AA114C002302F8053D0546D7
:104E10002368019313212120FFF7CAFD70B99DF883
:104E20000320012D0CBF42F0010202F0FE0213210B
:104E300021208DF80320FFF77BFD40B2019A236803
:104E40009A4201D103B030BDFDF7DAFD000B00201E
:104E500030B5154C83B00546236801930020FFF759
:104E6000CFFF28B1019A23689A421BD103B030BD0D
:104E7000C5F3842207212120FFF75AFD40B2002804
:104E8000F0D1C5F3870210212120FFF751FD40B278
:104E90000028E7D105F0030204212120FFF748FD97
:104EA00040B2DFE7FDF7ACFD000B00200000000082
:104EB00010B50A4B0A4A1988146858881B7982B0C1
:104EC000022B019400FB01F00199136818BF400008
:104ED000994201D102B010BDFDF792FD74D40020BB
:104EE000000B002000000000000000000000000097
:104EF00030B583B002A80D4D00242B6820F8064D74
:104F00000193FFF7A5FD68B9BDF8020047F273648D
:104F1000001BB0FA80F04009019A2B689A4203D135
:104F200003B030BD2046F7E7FDF76AFD000B002017
:104F300030B583B002AA114C00210546236822F83F
:104F4000081D6E20019301F0CBF828B1019A236867
:104F50009A4211D103B030BD0DF1010201216E2042
:104F600001F0BEF80028F1D19DF800209DF8013035
:104F700043EA02232B80E9E7FDF742FD000B002006
:104F800030B50E4C83B005462368019301220321FE
:104F90006E2001F0F5F828B1019A23689A420BD1EE
:104FA00003B030BD2A4638216E2001F0E9F8002810
:104FB000F2D1034B1D71EFE7FDF722FD000B00203E
:104FC0007CD4002000000000000000000000000071
:104FD0002DE9F04F8DB0DFF80494DDF858C0D9F812
:104FE00000400B9401F10806171D5C1E0CF1FF3503
:104FF000B3F5207F9DF85CA0009034443D449DF8BB
:1050000060B000F21082BCF5F07F00F20C82B6F5C1
:10501000227F00F21182B7F5F27F00F21082A642E1
:1050200080F00482B4F5227F00F20082AF4280F06B
:105030000082B5F5F27F00F2FC81BAF1400F00F07A
:10504000B581BAF1800F23D0BAF1200F00F0A18111
:105050004FF00008CDF80480BBF1400F2ED0BBF11B
:10506000800F00F0CB81BBF1200F00F0B98100234D
:10507000CDE902330098FFF783FF002838D00B9A60
:10508000D9F800309A4240F0E3810DB0BDE8F08FCE
:105090009A0740F0D781CF4AB4084FEA4308661C0C
:1050A000A2FB0818A2FB031204EB9304BBF1400F10
:1050B00006EBD203019306EBD808D0D11CF0010F08
:1050C00040F0C381C34B00987D084FEA4C026F1C2F
:1050D000A3FB0212A3FB0C1307EB9303029307EB52
:1050E000920305EB5C050393FFF74AFF0028C6D146
:1050F000012203216E2001F043F80028BFD1C6F33E
:1051000007231A4650216E20049301F039F8002835
:10511000B5D1F3B21A4651216E20059301F030F853
:105120000028ACD1C7F307231A4652216E200693FC
:1051300001F026F80028A2D1FBB21A4653216E20B6
:10514000079301F01DF8002899D1C4F307225421D8
:105150006E2001F015F8002891D1E3B21A465521CE
:105160006E20089301F00CF8002888D1C5F30722BF
:1051700056216E2001F004F8002880D1EBB21A46C7
:1051800057216E20099300F0FBFF00287FF477AFD2
:10519000524680216E2000F0F3FF00287FF46FAFAD
:1051A0005A4681216E2000F0EBFF00287FF467AFA4
:1051B000024660216E2000F0E3FF00287FF45FAF1D
:1051C0000C2261216E2000F0DBFF00287FF457AF36
:1051D000012262216E2000F0D3FF00287FF44FAF40
:1051E000EC2263216E2000F0CBFF00287FF447AF54
:1051F000009B0D2B00F04081BAF1400F00F046817A
:10520000BAF1800F00F02F81BAF1200F00F0228157
:10521000012282216E2000F0B3FF00287FF42FAF1F
:10522000022203216E2000F0ABFF00287FF427AF9D
:10523000049A10216E2000F0A3FF00287FF41FAF16
:10524000059A11216E2000F09BFF00287FF417AF14
:10525000069A12216E2000F093FF00287FF40FAF12
:10526000079A13216E2000F08BFF00287FF407AF10
:10527000A21BC2F3072214216E2000F081FF002838
:105280007FF4FDAE089B059A9A1AD2B215216E20C2
:1052900000F076FF00287FF4F2AEEA1BC2F307228B
:1052A00016216E2000F06CFF00287FF4E8AE099B09
:1052B000079A9A1AD2B217216E2000F061FF0028D7
:1052C0007FF4DDAE019B1821C3F307226E2000F0AE
:1052D00057FF00287FF4D3AE9DF8043004931A469C
:1052E00019216E2000F04CFF00287FF4C8AE029B0D
:1052F0001A21C3F307226E2000F042FF00287FF43A
:10530000BEAE9DF8083005931A461B216E2000F0B2
:1053100037FF00287FF4B3AE019BA8EB0302C2F372
:1053200007221C216E2000F02BFF00287FF4A7AE7F
:10533000049BA8EB0302D2B21D216E2000F020FFD7
:1053400000287FF49CAEDDE902239A1AC2F30722FB
:105350001E216E2000F014FF00287FF490AE039B06
:10536000059A9A1AD2B21F216E2000F009FF002878
:105370007FF485AE184B9DF800201A710134013579
:10538000A61BEF1B1E805F8083F805A083F806B084
:1053900075E6104A4FEA4308A2FB031306EB5303DA
:1053A000A2FB0828019306EB580855E6D90749D413
:1053B000084A74084FEA4308661CA2FB0818A2FBBF
:1053C000031204EB530406EB9203019306EB9808D7
:1053D00042E600BFABAAAAAA7CD40020000B0020A2
:1053E000334A4FEA4C03A2FB0C1CA2FB032307EB3E
:1053F000530307EB5C02029203933BE61CF0030F9E
:1054000023D12B4BBD084FEA4C026F1CA3FB0212A9
:10541000A3FB0C1307EBD303029307EBD20305EBBB
:105420009C05039326E66FF0070028E66FF0030063
:1054300025E66FF0040022E66FF001001FE66FF032
:1054400002001CE66FF0050019E66FF0060016E694
:10545000FDF7D6FA002268216E2000F091FE0028A8
:105460003FF4D6AE0BE6032268216E2000F088FEE2
:1054700000283FF4CDAE02E6BAF1400FF3D0BAF106
:10548000800F0CD0BAF1200F7FF4C2AE0122682148
:105490006E2000F075FE00283FF4BAAEEFE507225B
:1054A00068216E2000F06CFE00283FF4B1AEE6E506
:1054B000ABAAAAAA00000000000000000000000043
:1054C00030B50B4C87B02023782225680092CDE9B7
:1054D0000133B422A023F02102200595FFF778FDC7
:1054E000059A23689A4201D107B030BDFDF788FACA
:1054F000000B002000000000000000000000000081
:1055000070B5134C82B006460D4623680193002205
:1055100003216E2000F034FE90B9012E019923681A
:105520000CBFB5223522012D08BF42F0400299423E
:105530000CD190216E2002B0BDE8704000F020BE7A
:10554000019A23689A4201D102B070BDFDF758FA62
:10555000000B002000000000000000000000000020
:1055600030B5164C83B02368019305460023022210
:1055700003216E208DF8033000F002FE28B1019A5D
:1055800023689A4218D103B030BD0DF10302042103
:105590006E2000F0A5FD0028F1D19DF80320012D1B
:1055A0000CBF02F0FC0242F0030204216E208DF8D1
:1055B000032000F0E5FDE2E7FDF722FA000B0020F2
:1055C00070B51D4C82B005462368019300200E463D
:1055D000FFF7C6FF28B1019A23689A4229D102B089
:1055E00070BD022203216E2000F0CAFD0028F2D116
:1055F000272250216E2000F0C3FD0028EBD12A0A9B
:105600004C216E2000F0BCFD0028E4D1EAB24D210F
:105610006E2000F0B5FD0028DDD1019A23689A4282
:1056200007D132464E216E2002B0BDE8704000F036
:10563000A7BDFDF7E5F900BF000B0020000000004A
:1056400010B50A4B0A4A1988146858881B7982B029
:105650000D2B019400FB01F00199136818BF400065
:10566000994201D102B010BDFDF7CAF97CD40020E7
:10567000000B0020000000000000000000000000FF
:1056800030B583B002A80D4D00242B6820F8064DDC
:105690000193FFF74DFC68B9BDF8020046F23004F3
:1056A000001BB0FA80F04009019A2B689A4203D19E
:1056B00003B030BD2046F7E7FDF7A2F9000B00204C
:1056C00030B583B002AA114C00210546236822F8A8
:1056D000081D6E20019300F003FD28B1019A236894
:1056E0009A4211D103B030BD0DF1010201216E20AB
:1056F00000F0F6FC0028F1D19DF800209DF8013063
:1057000043EA02232B80E9E7FDF77AF9000B00203A
:1057100070B5274D82B02B68019306460122032104
:105720006E2000F02DFD044630B1019A2B689A429C
:1057300020463AD102B070BD32464E216E2000F0B4
:105740001FFD04460028F0D1442E07D00246B721A1
:105750006E2000F015FDB8B10446E6E70122B7213E
:105760006E2000F00DFD0028F6D1224603216E20A8
:1057700000F006FD0028EFD1032211216E2000F079
:10578000FFFC78B10446D0E7224603216E2000F0EA
:10579000F7FC0028E0D10A2211216E2000F0F0FC75
:1057A0000028D9D1034B1E71BFE7FDF729F900BFCF
:1057B000000B002084D40020000000000000000046
:1057C0002DE9F04F8FB0DFF80084DDF860C0D8F825
:1057D00000400D940CF1FF355C1EB3F5207F9DF861
:1057E00064909DF868B00C44154400F21282BCF538
:1057F000F07F00F20E82B1F5207F0E4600F2128299
:10580000B2F5F07F174600F21082A14280F00482C8
:10581000B4F5207F00F20082AA4280F00082B5F544
:10582000F07F00F2FC81B9F1400F824600F0B081B8
:10583000B9F1800F23D0B9F1200F00F09C81002333
:10584000CDE90033BBF1400F2FD0BBF1800F00F04A
:10585000CB81BBF1200F00F0B9810023CDE90233E9
:10586000002203216E2000F08BFCA0B30D9AD8F823
:1058700000309A4240F0E2810FB0BDE8F08F9A0705
:1058800040F0D681CC4A8C085900661CA2FB01016D
:10589000A2FB030204EB930406EBD2030093BBF1DB
:1058A000400F06EBD1030193CFD11CF0010F40F064
:1058B000C281C14B7D084FEA4C026F1CA3FB021250
:1058C000A3FB0C1307EB9303029307EB920305EB87
:1058D0005C050393C4E702465B216E2000F050FC98
:1058E0000028C3D15046FFF713FF0028BED102465F
:1058F00003216E2000F044FC0028B7D1C6F3072333
:105900001A4608216E20049300F03AFC0028ADD11D
:10591000F3B21A4609216E20059300F031FC0028ED
:10592000A4D1C7F307231A460A216E20069300F07C
:1059300027FC00289AD1FBB21A460B216E20079350
:1059400000F01EFC002891D1C4F307231A460C2155
:105950006E20089300F014FC002887D1E3B21A46A9
:105960000D216E20099300F00BFC00287FF47EAF20
:10597000C5F307231A460E216E200A9300F000FC9F
:1059800000287FF473AFEBB21A460F216E200B9301
:1059900000F0F6FB00287FF469AF049A35216E20F1
:1059A00000F0EEFB00287FF461AF059A36216E20EF
:1059B00000F0E6FB00287FF459AF089A37216E20EB
:1059C00000F0DEFB00287FF451AF099A38216E20E9
:1059D00000F0D6FB00287FF449AF069A39216E20EB
:1059E00000F0CEFB00287FF441AF079A3A216E20E9
:1059F00000F0C6FB00287FF439AF0A9A3B216E20E5
:105A000000F0BEFB00287FF431AF0B9A3C216E20E2
:105A100000F0B6FB00287FF429AF009B3D21C3F3C3
:105A200007226E2000F0ACFB00287FF41FAF9DF82A
:105A300000203E216E2000F0A3FB00287FF416AF6B
:105A4000019B3F21C3F307226E2000F099FB002841
:105A50007FF40CAF9DF8042040216E2000F090FBF5
:105A600000287FF403AF029B4121C3F307226E207D
:105A700000F086FB00287FF4F9AE9DF80820422153
:105A80006E2000F07DFB00287FF4F0AE039B4321E5
:105A9000C3F307226E2000F073FB00287FF4E6AE0C
:105AA0009DF80C2044216E2000F06AFB00287FF452
:105AB000DDAE012203216E2000F062FB00287FF49E
:105AC000D5AE4A4693216E2000F05AFB00287FF4A1
:105AD000CDAE5A4694216E2000F052FB00287FF490
